:0200000480007A
:10000000B7000080678080007350403073504034E8
:100010009300000013010000930100001302000090
:100020009302000013030000930300001304000078
:100030009304000013050000930500001306000060
:100040009306000013070000930700001308000048
:10005000930800001309000093090000130A000030
:10006000930A0000130B0000930B0000130C000018
:10007000930C0000130D0000930D0000130E000000
:10008000930E0000130F0000930F00009721000053
:100090009381C1DE732640F1B70200009382020013
:1000A00063F4C2006F10404117210000130181F575
:1000B000B712000093820280630C0600130306004F
:1000C00093830200B38272001303F3FFE31C03FE69
:1000D00033015140330401006F004000130101FF60
:1000E0002326110097100000E780C017630E050457
:1000F00097100000E780C016371500801305C5670C
:10010000B71500809385856763F8A50023A00500D7
:1001100093854500E3ECA5FE371500801305856740
:10012000B71500809385856763F0A50237160080B8
:10013000130686678326060023A0D5009385450015
:1001400013064600E3E8A5FE97100000E78000369E
:1001500097000000E780802B731000C0130101FCA2
:100160002320110023225100232461002326710043
:100170002328C101232AD101232CE101232EF101DF
:100180002320A1022322B1022324C1022326D1026B
:100190002328E102232AF102232C0103232E110339
:1001A00033050100EF00C0048320010083224100D9
:1001B000032381008323C100032E0101832E41010B
:1001C000032F8101832FC1010325010283254102F1
:1001D000032681028326C1020327010383274103EB
:1001E000032881038328C103130101047300203015
:1001F000130101FF232611002324810013040500AD
:1002000097100000E780800B9305F0FF63DEA500E8
:1002100013050400032481008320C10013010101A0
:100220001713000067004303B70500809385F5FFAF
:100230003375B5009305C0006376B502B71500802D
:1002400093858564131525003305B50083270500C4
:10025000638A0700032481008320C1001301010188
:1002600067800700032481008320C100130101017E
:1002700017130000670083FE67800000130101FF71
:10028000130500082326010063F8A5002306B1002A
:10029000130610006F00400A13D5B5006312050263
:1002A00013D5650093F5F503136505FC2306A1003E
:1002B00093E50508A306B100130620006F00800730
:1002C00013D50501631A050213D5C50013D66500C1
:1002D00093F5F503136505FE2306A1001376F603D7
:1002E00013660608A306C10093E505082307B100BD
:1002F000130630006F00000413D5250113D6C50086
:1003000093D6650093F5F503136505FF2306A10059
:100310001376F60313660608A306C10013F6F60368
:10032000136606082307C10093E50508A307B1007B
:1003300013064000930505001305C1003306C500F0
:10034000B70602F003A74600135707011377F70F0C
:10035000E30A07FE93F5F50F1305150023A0B60079
:100360006306C500834505006FF0DFFD130500003F
:100370001301010167800000130101FD2326110212
:100380000325050003A6450183A605012326A10038
:100390002322C1022320D10203A5C50003A68500A4
:1003A00083A6450083A50500232EA100232CC100B0
:1003B000232AD1002328B1001305C10093050101B0
:1003C00097100000E78000B98320C10213010103E8
:1003D00067800000630606023385C500370602F019
:1003E00083C6050003274600135707011377F70F4D
:1003F000E30A07FE938515002320D600E392A5FEAD
:100400001305000067800000130101FA232E110478
:10041000232C8104232A9104232821052326310536
:10042000232441052322510523206105232E710336
:10043000232C8103232A91032328A1032326B1031C
:1004400097100000E78000E6130405001305800004
:1004500097100000E78000E6371500808345956718
:1004600093041000638A050013758400631005026D
:10047000638604026F00005293040000930510008D
:10048000A30CB56613758400E30405FE1305800014
:1004900097100000E78080E1639E044E97100000F3
:1004A000E78040E01304050013058000971000006A
:1004B000E78040E0371500808345A567930410006E
:1004C000638A0500137584006310050263860402C5
:1004D0006F00404C9304000093051000230DB56697
:1004E00013758400E30405FE1305800097100000D7
:1004F000E780C0DB6390044A370500F00325450020
:10050000B7D50800938505A097100000E78040DE6E
:100510001305F5FFB70502F023A4A50003A5C50048
:100520003706FFFF130606CF3375C5001365750048
:1005300023A6A50097100000E780C0D6130405008D
:100540001305800097100000E780C0D637150080A3
:100550008345B56793041000638C054013758400D0
:100560006312054263980442130581022320A1000F
:1005700037150080130505532328A100130510002B
:10058000232AA100232C010037150080930B8564DA
:1005900023207103232201021305010093090101A5
:1005A0009385090097100000E780C09A130C0000A3
:1005B000370403F0370D00F037E5F505130A051091
:1005C00037050100930AF5FF930DC400371500802D
:1005D000130BC5531309A0000325C4001375E5FFD1
:1005E0002326A40083258D00638E053C130C1C007C
:1005F00013050A0097100000E78080CF930C0500D8
:1006000093850A0097100000E78080CE93040500D0
:100610009305150013850C0097100000E78040CD6E
:10062000232294002324A4000325C400136515008D
:1006300023A0AD0003250401E30E05FE130581028E
:100640002320A1002328610113051000232AA10003
:10065000232C010023207103232201021305010032
:100660009385090097100000E780C08EE3162CF7F1
:10067000130581022320A100371500801305C554FE
:100680002328A100930A1000232A5101232C0100E2
:1006900037150080130585642320A102232201025F
:1006A000130501009305010197100000E780808A7F
:1006B000370401F003258400136515002324A400EA
:1006C00003258400136525002324A400032584004A
:1006D000136545002324A4000325840013658500C9
:1006E0002324A40003258400136505012324A4000A
:1006F000B70B03F003A5CB001375E5FF23A6AB00F2
:10070000370500F083258500638E052A37B5E60E90
:100710001305052897100000E78080BD93090500A8
:10072000B70401009385F4FF97100000E78040BCF8
:10073000130A0500930515001385090097100000A2
:10074000E78000BB23A24B0123A4AB0003A5CB0091
:100750001365150023A6AB0003A5CB0033659500F8
:1007600023A6AB0023AC5B01B70402F003A5440051
:100770001365250023A2A40003254400136525006A
:100780002322A400032544001375B5FF2322A400EF
:1007900003254400136585002322A400032544009B
:1007A0001375F5FE2322A400370C0040B70C00207F
:1007B00037150080930DC5A137150080130B4556E2
:1007C0009309C100130A0101130D440013894B0161
:1007D00003A54400937505201305100063960500DA
:1007E00003A54B013335A0008325440093F5E5FFB5
:1007F00033E5A5002322A40003A54B01630E050ADF
:10080000832544000325440093F52500639C0504DB
:10081000136525002320AD008325440003254400F3
:1008200093F54500638C05041375B5FF2322A400DE
:10083000832544000325440093F58500638C05045B
:10084000137575FF2322A40083254400032544006B
:1008500093F50501638C05041375F5FE2322A400AE
:100860006F0040051375D5FF2322A40083254400A3
:100870000325440093F54500E39805FA1365450008
:100880002320AD00832544000325440093F5850013
:10089000E39805FA136585002320AD008325440005
:1008A0000325440093F50501E39805FA1365050156
:1008B0002320AD002320590103250400634E0508C1
:1008C00003250400337585016306050403A50B00A9
:1008D0002324A100130581002320A1002322B101BC
:1008E000130581022326A10023286101130520009E
:1008F000232AA100232C0100130501002320A102BB
:10090000232251031385090093050A009700000074
:10091000E78040640325040033759501E31A05EA76
:1009200003A50401137535006312050803A54400EF
:1009300013558501E30E05E803A5040083A54400D3
:1009400093D5050193F5F50FE38405E81375F50FCD
:1009500023A0A4006FF0DFE737150080130545558D
:100960009305B00097000000E7800009731000C0F5
:100970009304000093051000A30DB5661375840061
:10098000E30205BE1305800097100000E780009287
:10099000E38C04BC371500801305454F9305B00266
:1009A00097000000E7804005731000C037150080F5
:1009B000130545579305C00097000000E780C0036A
:1009C000731000C0371500801305054C9305900186
:1009D00097000000E7804002731000C0370500F068
:1009E000232005000F0030036F00000003250500E1
:1009F0006F000000130101FF232611009700000083
:100A0000E780004C731000C0130101FF2326110082
:100A100097000000E780C04A731000C0130101FA7C
:100A2000232E1104232C8104232A91042328210539
:100A30002326310523244105232251052320610566
:100A4000232E7103232C8103232A91032328A1033E
:100A50002326B103032A05009384050013554A0099
:100A60009305102713047002636AB50E23209100CA
:100A700013040000372500001309057137E5FFFF57
:100A80009309058F37050100930AF5FF930BE5FFE6
:100A900037150080130C0558930C510037E5F50508
:100AA000130DF50F930D0A0013050A0093050900B5
:100AB00097100000E780C083130A050093850900A2
:100AC00097100000E7800080B304B50133F55401AE
:100AD0009305400697100000E7808081131B1500E6
:100AE0009305C0F997000000E780C07D33059500AD
:100AF0001315150033757501B3058B0133868C0012
:100B000083C605008385150033058501030715009D
:100B1000034505002302B602A301D6022303E60221
:100B2000A302A6021304C4FFE36EBDF7130474020C
:100B30008324010013053006634645031305A00016
:100B40006358AA081305F4FF93055100B385A50067
:100B500013060A032380C5006F00400A1305300600
:100B6000E35E45FD370901001305F9FF3375AA005F
:100B70009305400697000000E78080779309050001
:100B80009305C0F997000000E780C0733305450165
:100B9000131515009305E9FF3375B5001304E4FF41
:100BA000B7150080938505583305B50083051500FA
:100BB000034505001306510033068600A300B60066
:100BC0002300A600138A09001305A000E34CAAF62F
:100BD00093151A001305E4FF371600801306065814
:100BE000B385C5000386150083C505009306510033
:100BF000B386A600A380C6002380B60083A50400A8
:100C0000930651001307700213F61500370A1100FE
:100C100063040600130AB002B309A7403389A60093
:100C20001395D5011355F54183A68400371700802D
:100C300013078764130B1000B37AE500639666050B
:100C400083ACC4003384C9006370940513F5850038
:100C50006316050A03C504029305100093063000CD
:100C6000130610006304D500130605001376360042
:100C700033858C4063C6C50E6318060E130C050041
:100C8000130500006F0080101385040093050A000F
:100C900013860A0097000000E780C0236310050256
:100CA00083A5C40103A5840183A6C500930509009B
:100CB00013860900E7800600130B050013050B00DF
:100CC000832DC102032D0103832C4103032C8103D7
:100CD000832BC103032B0104832A4104032A8104CB
:100CE0008329C104032901058324410503248105C7
:100CF0008320C105130101066780000083AB440017
:100D00001305000303CC040223A2A400130B10005C
:100D1000238064031385040093050A0013860A00E8
:100D200097000000E780001BE31A05F803C50402E2
:100D30009305100093063000130610006304D500DD
:100D4000130605001376360033858C4063C2C50256
:100D500063140602930A0500130500006F00C00C1F
:100D600093053000631EB600130C00006F000002F4
:100D7000930530006314B60A930A00006F00C00A9E
:100D8000930515001355150013DC15001304150009
:100D90001304F4FF6300040203A6C40103A5840145
:100DA00083A5440003260601E7000600E30205FED2
:100DB0006F00C00983AB44001385040093050A004B
:100DC00013860A0097000000E780C010130B100084
:100DD000E31605EE83A5C40103A5840183A6C5001F
:100DE0009305090013860900E7800600E31805EC67
:100DF00003A9840183A9C40113041C001304F4FF94
:100E00006302040A03A609011305090093850B0078
:100E1000E7000600E30405FE6FF05FEA93051500A6
:100E20001355150093DA1500130415001304F4FF8D
:100E30006302040203A6C40103A5840183A5440040
:100E400003260601E7000600E30205FE130B10006F
:100E50006FF0DFE683A5C40103AA440003A5840163
:100E600083A6C5009305090013860900E7800600E4
:100E7000130B1000E31405E403A9840183A9C40142
:100E800013841A001304F4FF6302040203A6090189
:100E90001305090093050A00E7000600E30405FEB8
:100EA0006FF0DFE1130B00006FF05FE1130B000048
:100EB00023A27401238084036FF05FE0130101FF1C
:100EC0002326110097000000E78080B1731000C056
:100ED000130101FF23261100232481002322910006
:100EE000B706110013040600930405006380D502C1
:100EF00003A6C40103A5840103260601E70006003A
:100F00009305050013051000639A050263060402A9
:100F100083A5C40103A5840183A7C500930504002C
:100F20001306000083244100032481008320C100B4
:100F300013010101678007001305000083244100AD
:100F4000032481008320C100130101016780000098
:100F5000130101FA232E1104232C8104232A910466
:100F60002328210523263105232441052322510569
:100F700023206105232E7103232C8103232A91034F
:100F80002328A10323240100130600022326C10005
:100F9000130630002304C10223280100232C010082
:100FA00003A685002320A102371500801305C54D37
:100FB0002322A1026304061803A5C50083A94500E6
:100FC00003A90500138A090063E4A900130A0500B8
:100FD000630A0A2083264900638806020325090064
:100FE000B306D500370702F0834705008324470086
:100FF00093D4040193F4F40FE38A04FE130515005F
:101000002320F700E312D5FE83AC050103AB4501B5
:10101000130DC90013040601930A8100930B2000ED
:1010200037150080130CC59E93040A00032544FF66
:101030002326A1000305C4002304A102032584FF85
:101040002324A10003264400032584006304060230
:101050009305000063067603637A650D131535006A
:101060003385AC0083254500639A8501032505007F
:1010700003250500930510006F0080009305000014
:101080002328B100232AA1000326C4FF032504005E
:101090006304060293050000630276036378650922
:1010A000131535003385AC0083254500639685070D
:1010B000032505000325050093051000232CB1002E
:1010C000232EA100032504FF637265071315350065
:1010D000B385AC0003A5050003A6450093850A006F
:1010E000E7000600631605129384F4FF638E040E76
:1010F00083264102032501028325CDFF03260D002F
:1011000083A6C600130D8D0013040402E7800600B9
:10111000E30E05F06F00C00F93050000232CB10013
:10112000232EA100032504FFE36265FB93050B005A
:1011300097000000E780808D731000C003A50501B3
:1011400003A6450183A9450003A90500138A0900E8
:1011500063E4C900130A060063060A08032649006F
:1011600063080602832509003386C500B70602F02E
:1011700003C7050083A7460093D7070193F7F70F2E
:10118000E38A07FE9385150023A0E600E392C5FEDF
:10119000130BC90093044500930A810013040A004D
:1011A00003A6040003A5C4FF93850A00E700060018
:1011B000631005061304F4FF63080402832641024A
:1011C000032501028325CBFF03260B0083A6C6005F
:1011D000130B8B0093848400E7800600E30205FC78
:1011E0006F000003130A000063783A03032501022D
:1011F0008326410293153A003306B9008325060081
:101200000326460083A6C600E780060063060500A5
:10121000130510006F00800013050000032D01036B
:10122000832C4103032C8103832BC103032B010473
:10123000832A4104032A81048329C1040329010567
:1012400083244105032481058320C1051301010680
:10125000678000006F0000006F00000067800000E2
:10126000130101FF2326110097000000E78000030F
:101270006308050097000000E780C0016FF09FFF42
:10128000130510008320C1001301010167800000D5
:101290007300501067800000732540F167800000E4
:1012A00073250030678000007320053067800000E0
:1012B000733005306780000073252034678000009C
:1012C000130600006300050293761500B306D040B4
:1012D000B3F6B6003386C600135515009395150076
:1012E000E31405FE1305060067800000130101FEEC
:1012F000232E1100232C8100232A91002328210171
:10130000232631012324410123225101232061019D
:1013100063880518130A0500630E050E1384050083
:1013200013D5150033E5A500935525003365B500A9
:10133000935545003365B500935585003365B50079
:10134000935505013365B5001345F5FF9355150019
:101350003756555593095655B3F535013305B54004
:10136000B735333393843533B37595001355250062
:10137000337595003385A500935545003305B500B9
:10138000B7150F0F938AF5F033755501B7050101B5
:10139000138915109305090097000000E78080F27B
:1013A000135B850113551A003365AA009355250078
:1013B0003365B500935545003365B50093558500F9
:1013C0003365B500935505013365B5001345F5FF49
:1013D00093551500B3F535013305B540B375950048
:1013E00013552500337595003385A50093554500A9
:1013F0003305B500337555019305090097000000CA
:10140000E78040EC13558501B305AB401305F001AF
:10141000637AB502130A000013050A00032B0100CA
:10142000832A4100032A81008329C1000329010185
:1014300083244101032481018320C101130101029E
:1014400067800000E38AA5FC1306000013851500E1
:101450009306F001B385B640B315BA00B356AA009F
:101460009396160013D7F501B3E6E60093951500A1
:10147000B365B60013C6F6FF330686001357F64170
:1014800013761700337787001305F5FFB386E64020
:10149000E31805FC13951500336AA6006FF0DFF71B
:1014A000731000C0731000C097F2FFFF938242CB0D
:0C14B00073905230678000006F00000055
:1014C000617474656D707420746F206469766964EA
:1014D00065206279207A65726F00000078020080D2
:1014E0000400000004000000D40300807C0200809F
:1014F0007803008063616C6C656420604F70746970
:101500006F6E3A3A756E77726170282960206F6E3F
:10151000206120604E6F6E65602076616C75650D90
:101520000A426F6F74696E67204368657272790052
:101530001F150080100000002E00000038150080EC
:10154000010000000D0A243E200000004415008028
:101550000500000048656C6C6F2070616E69630D5A
:101560000A00000048160080000000005F1500809F
:101570000200000053657269616C206661756C74CD
:10158000303030313032303330343035303630373F
:101590003038303931303131313231333134313525
:1015A000313631373138313932303231323232330B
:1015B00032343235323632373238323933303331F1
:1015C00033323333333433353336333733383339D7
:1015D00034303431343234333434343534363437CF
:1015E00034383439353035313532353335343535B5
:1015F000353635373538353936303631363236339B
:101600003634363536363637363836393730373180
:101610003732373337343735373637373738373966
:10162000383038313832383338343835383638375E
:101630003838383939303931393239333934393544
:101640003936393739383939581200805812008004
:1016500000000000581200805812008058120080CC
:1016600000000000581200805812008058120080BC
:08167000000000005812008088
:040000058000000077
:00000001FF
