:0200000480007A
:10000000B7000080678080007350403073504034E8
:100010009300000013010000930100001302000090
:100020009302000013030000930300001304000078
:100030009304000013050000930500001306000060
:100040009306000013070000930700001308000048
:10005000930800001309000093090000130A000030
:10006000930A0000130B0000930B0000130C000018
:10007000930C0000130D0000930D0000130E000000
:10008000930E0000130F0000930F00009711000063
:10009000938181C4732640F1B7020000938202006D
:1000A00063F4C2006F00C03F17210000130181F507
:1000B000B712000093820280630C0600130306004F
:1000C00093830200B38272001303F3FFE31C03FE69
:1000D00033015140330401006F004000130101FF60
:1000E0002326110097000000E780C034630E05044A
:1000F00097000000E780C033370500801305854D69
:10010000B70500809385454D63F8A50023A0050041
:1001100093854500E3ECA5FE370500801305454DAA
:10012000B70500809385454D63F0A5023706008032
:100130001306464D8326060023A0D500938545006F
:1001400013064600E3E8A5FE97000000E780803430
:1001500097000000E7808012731000C0130101FCBB
:100160002320110023225100232461002326710043
:100170002328C101232AD101232CE101232EF101DF
:100180002320A1022322B1022324C1022326D1026B
:100190002328E102232AF102232C0103232E110339
:1001A00033050100EF00C0048320010083224100D9
:1001B000032381008323C100032E0101832E41010B
:1001C000032F8101832FC1010325010283254102F1
:1001D000032681028326C1020327010383274103EB
:1001E000032881038328C103130101047300203015
:1001F000130101FF232611002324810013040500AD
:1002000097000000E78080289305F0FF63DEA500DB
:1002100013050400032481008320C10013010101A0
:100220001703000067004320B70500809385F5FFA2
:100230003375B5009305C0006376B502B70500803D
:100240009385454A131525003305B500832705001E
:10025000638A0700032481008320C1001301010188
:1002600067800700032481008320C100130101017E
:10027000170300006700831B130101FF23261100F1
:10028000232481002322910097000000E780801E34
:10029000130405001305800097000000E780801E0E
:1002A000370500808345454D93041000638C05108D
:1002B000137584006312051263980412370500F069
:1002C0008325850093E515002324B500832585004B
:1002D00093E525002324B5008325850093E545009B
:1002E0002324B5008325850093E585002324B500EC
:1002F0008325850093E505012324B50093051000AF
:1003000037060100B7060040370700206F004002A3
:100310008327450093F7E7FF93D4D50093F41400A7
:10032000B3E7F40093C717002322F5009385150067
:1003300083274500B3F4C50093F7D7FF13D4F40027
:10034000B367F40093C727002322F50083274500F5
:1003500093F7B7FF93D4E400B3E797002322F500A7
:1003600083240500B787000063C40400B74700007A
:1003700083244500B3F7B70013B4170093F474FF58
:1003800013143400B3E48400232295008324450031
:10039000B337F00093F4F4FE93974700B3E7F4000B
:1003A0002322F50083270500B3F7D700E39207F671
:1003B00083270500B3F7E700E39C07F49385150056
:1003C0006FF01FF79304000093051000230AB54C4B
:1003D00013758400E30205EE13058000970000000A
:1003E000E780C009E38C04EC97000000E780C000C0
:1003F000731000C0130101FF2326110097000000B5
:10040000E780C000731000C0130101FF2326110014
:1004100097000000E780C000731000C00F00300399
:100420006F0000006F0000006F0000006780000098
:10043000130101FF2326110097000000E78000034D
:100440006308050097000000E780C0016FF09FFF80
:10045000130510008320C100130101016780000013
:100460007300501067800000732540F16780000022
:10047000732500306780000073200530678000001E
:1004800073300530678000007325203467800000DA
:10049000970200009382C2CC7390523067800000B4
:0404A0006F000000E9
:1004A4002804008028040080000000002804008044
:1004B4002804008028040080000000002804008034
:1004C4002804008028040080000000002804008024
:040000058000000077
:00000001FF
