:0200000480007A
:10000000B7000080678080007350403073504034E8
:100010009300000013010000930100001302000090
:100020009302000013030000930300001304000078
:100030009304000013050000930500001306000060
:100040009306000013070000930700001308000048
:10005000930800001309000093090000130A000030
:10006000930A0000130B0000930B0000130C000018
:10007000930C0000130D0000930D0000130E000000
:10008000930E0000130F0000930F00009721000053
:10009000938181C8732640F1B70200009382020069
:1000A00063F4C2006F00D06517210000130181F5D1
:1000B000B712000093820280630C0600130306004F
:1000C00093830200B38272001303F3FFE31C03FE69
:1000D00033015140330401006F004000130101FF60
:1000E0002326110097100000E780C0BB630E0504B3
:1000F00097100000E780C0BA3715008013058551BE
:10010000B71500809385455163F8A50023A005002D
:1001100093854500E3ECA5FE371500801305455196
:10012000B71500809385455163F0A502371600800E
:10013000130646518326060023A0D500938545006B
:1001400013064600E3E8A5FE97100000E78080DA7A
:1001500097000000E7808035731000C0130101FC98
:100160002320110023225100232461002326710043
:100170002328C101232AD101232CE101232EF101DF
:100180002320A1022322B1022324C1022326D1026B
:100190002328E102232AF102232C0103232E110339
:1001A00033050100EF00C0048320010083224100D9
:1001B000032381008323C100032E0101832E41010B
:1001C000032F8101832FC1010325010283254102F1
:1001D000032681028326C1020327010383274103EB
:1001E000032881038328C103130101047300203015
:1001F000130101FF232611002324810013040500AD
:1002000097100000E78000B09305F0FF63DEA500C3
:1002100013050400032481008320C10013010101A0
:1002200017130000670043A7B70500809385F5FF0B
:100230003375B5009305C0006376B502B71500802D
:100240009385454E131525003305B500832705001A
:10025000638A0700032481008320C1001301010188
:1002600067800700032481008320C100130101017E
:1002700017130000670083A267800000130101FFCD
:10028000130500082326010063F8A5002306B1002A
:10029000130610006F00400A13D5B5006312050263
:1002A00013D5650093F5F503136505FC2306A1003E
:1002B00093E50508A306B100130620006F00800730
:1002C00013D50501631A050213D5C50013D66500C1
:1002D00093F5F503136505FE2306A1001376F603D7
:1002E00013660608A306C10093E505082307B100BD
:1002F000130630006F00000413D5250113D6C50086
:1003000093D6650093F5F503136505FF2306A10059
:100310001376F60313660608A306C10013F6F60368
:10032000136606082307C10093E50508A307B1007B
:1003300013064000930505001305C1003306C500F0
:10034000B70602F003A74600135707011377F70F0C
:10035000E30A07FE93F5F50F1305150023A0B60079
:100360006306C500834505006FF0DFFD130500003F
:100370001301010167800000130101FD2326110212
:100380000325050003A6450183A605012326A10038
:100390002322C1022320D10203A5C50003A68500A4
:1003A00083A6450083A50500232EA100232CC100B0
:1003B000232AD1002328B1001305C10093050101B0
:1003C00097000000E780005D8320C1021301010354
:1003D00067800000630606023385C500370602F019
:1003E00083C6050003274600135707011377F70F4D
:1003F000E30A07FE938515002320D600E392A5FEAD
:100400001305000067800000130101FF232611007F
:10041000370500F003254500B7D50800938505A0F2
:1004200097100000E780808E9305F5FF370502F0F6
:100430002324B5008325C5003706FFFF130606CF2A
:10044000B3F5C50093E575002326B50083250501A6
:1004500093F53500639E050203254500135585017C
:1004600063020502370502F08325050003264500D7
:10047000135606011376F60F6306060093F5F50F83
:100480002320B5008320C100130101016780000013
:10049000371500801305F5F69305C000970000009E
:1004A000E780804B731000C0130101FA232E110462
:1004B000232C8104232A9104232821052326310596
:1004C000232441052322510523206105232E710396
:1004D000232C8103232A91032328A1032326B1037C
:1004E00097100000E78000801304050013058000CA
:1004F00097100000E7800080371500808345555134
:1005000093041000638A05001375840063100502CC
:10051000638604026F0000419304000093051000FD
:10052000A30AB55013758400E30405FE130580008B
:1005300097000000E780807B6396043E97000000F0
:10054000E780407A1304050013058000970000003F
:10055000E780407A37150080834565519304100089
:10056000638A050013758400631005026386040224
:100570006F00403B9304000093051000230BB5501F
:1005800013758400E30405FE130580009700000046
:10059000E780C07563980438370500F003254500EF
:1005A000B7D50800938505A097000000E780007686
:1005B0001305F5FFB70502F023A4A50003A5C500A8
:1005C0003706FFFF130606CF3375C50013657500A8
:1005D00023A6A50097000000E780C0701304050063
:1005E0001305800097000000E780C0703715008079
:1005F000834575519304100063840530137584009E
:10060000631A053063900432130581022326A1008A
:10061000371500801305054D2328A1001305100090
:10062000232AA100232C0100371500801305454E15
:100630002320A102232201021305C1009305010119
:1006400097000000E7800035B70A01F003A58A0093
:100650001365150023A4AA0003A58A0013652500CD
:1006600023A4AA0003A58A001365450023A4AA00B9
:1006700003A58A001365850023A4AA0003A58A00A8
:100680001365050123A4AA00370502F08325450060
:1006900093E525002322B500130580009700000094
:1006A000E780C0643715000013050580970000003F
:1006B000E780C06403A54A001365250023A2AA00B1
:1006C00003A54A001375B5FF23A2AA0003A54A009B
:1006D0001365850023A2AA0003A54A001375F5FE41
:1006E000138B4A002320AB00B70B0040370C0020CF
:1006F000370403F0370D00F037E5F5051309051051
:1007000037050100130AF5FF930DC4003765CD1DB1
:100710009309055083A54A0003A54A0093F52500D7
:1007200063900506136525002320AB0083A54A00CE
:1007300003A54A0093F54500638005061375B5FFD0
:1007400023A2AA0083A54A0003A54A0093F58500C9
:1007500063800506137575FF23A2AA0083A54A00CE
:1007600003A54A0093F50501638005061375F5FEA0
:1007700023A2AA0003A50A00635005066F004015D6
:100780001375D5FF23A2AA0083A54A0003A54A003A
:1007900093F54500E39405FA136545002320AB006B
:1007A00083A54A0003A54A0093F58500E39405FA62
:1007B000136585002320AB0083A54A0003A54A00EA
:1007C00093F50501E39405FA136505012320AB00B9
:1007D00003A50A00634E050E03A50A0033757501D3
:1007E0006304050283A54A0003A54A0093F515009A
:1007F00063980500136515002320AB006F00C0004F
:100800001375E5FF23A2AA0003A50A008325C400EF
:1008100093F5E5FF2326B40083258D00337685010B
:1008200013B51500631C06046310050C13050900BD
:1008300097000000E780804D930C050093050A00A7
:1008400097000000E780804C930405009305150095
:1008500013850C0097000000E780404B2322940092
:100860002324A4000325C4001365150023A0AD00B4
:1008700003250401E30E05FE6FF0DFE963160506AC
:100880001385090097000000E7804048930C05009D
:1008900093050A0097000000E78040479304050095
:1008A0009305150013850C0097000000E7800046B3
:1008B000232294002324A4000325C40013651500FB
:1008C00023A0AD0003250401E30E05FE6FF09FE4B5
:1008D000371500801305854D9305B0009700000083
:1008E000E7808007731000C037150080130505F1FD
:1008F0009305900197000000E7800006731000C088
:100900009304000093051000A30BB55013758400E9
:10091000E30A05CE1305800097000000E780003D44
:10092000E38404CE37150080130545F49305B00227
:1009300097000000E7804002731000C0370500F008
:10094000232005000F0030036F0000000325050081
:100950006F000000130101FF232611009700000023
:10096000E7800002731000C0130101FF232611006D
:1009700097000000E780C000731000C0130101FF62
:100980002326110097000000E78080FB731000C051
:10099000130101FA232E1104232C8104232A91042C
:1009A000232821052326310523244105232251052F
:1009B00023206105232E7103232C8103232A910315
:1009C0002328A10323240100130600022326C100CB
:1009D000130630002304C10223280100232C010048
:1009E00003A685002320A102371500801305C5F258
:1009F0002322A1026304061803A5C50083A94500AC
:100A000003A90500138A090063E4A900130A05007D
:100A1000630A0A2083264900638806020325090029
:100A2000B306D500370702F083470500832447004B
:100A300093D4040193F4F40FE38A04FE1305150024
:100A40002320F700E312D5FE83AC050103AB45017B
:100A5000130DC90013040601930A8100930B2000B3
:100A600037150080130CC59493040A00032544FF36
:100A70002326A1000305C4002304A102032584FF4B
:100A80002324A100032644000325840063040602F6
:100A90009305000063067603637A650D1315350030
:100AA0003385AC0083254500639A85010325050045
:100AB00003250500930510006F00800093050000DA
:100AC0002328B100232AA1000326C4FF0325040024
:100AD00063040602930500006302760363786509E8
:100AE000131535003385AC008325450063968507D3
:100AF000032505000325050093051000232CB100F4
:100B0000232EA100032504FF63726507131535002A
:100B1000B385AC0003A5050003A6450093850A0034
:100B2000E7000600631605129384F4FF638E040E3B
:100B300083264102032501028325CDFF03260D00F4
:100B400083A6C600130D8D0013040402E78006007F
:100B5000E30E05F06F00C00F93050000232CB100D9
:100B6000232EA100032504FFE36265FB93050B0020
:100B700097000000E78080DF731000C003A5050127
:100B800003A6450183A9450003A90500138A0900AE
:100B900063E4C900130A060063060A080326490035
:100BA00063080602832509003386C500B70602F0F4
:100BB00003C7050083A7460093D7070193F7F70FF4
:100BC000E38A07FE9385150023A0E600E392C5FEA5
:100BD000130BC90093044500930A810013040A0013
:100BE00003A6040003A5C4FF93850A00E7000600DE
:100BF000631005061304F4FF630804028326410210
:100C0000032501028325CBFF03260B0083A6C60024
:100C1000130B8B0093848400E7800600E30205FC3D
:100C20006F000003130A000063783A0303250102F2
:100C30008326410293153A003306B9008325060046
:100C40000326460083A6C600E7800600630605006B
:100C5000130510006F00800013050000032D010331
:100C6000832C4103032C8103832BC103032B010439
:100C7000832A4104032A81048329C104032901052D
:100C800083244105032481058320C1051301010646
:100C9000678000006F0000006F00000067800000A8
:100CA000130101FF2326110097000000E7800003D5
:100CB0006308050097000000E780C0016FF09FFF08
:100CC000130510008320C10013010101678000009B
:100CD0007300501067800000732540F167800000AA
:100CE00073250030678000007320053067800000A6
:100CF0007330053067800000732045306780000046
:100D00007325203467800000130101FE232E11009B
:100D1000232C8100232A910023282101232631013D
:100D200023244101232251012320610163880518F6
:100D3000130A0500630E050E1384050013D5150074
:100D400033E5A500935525003365B500935545005F
:100D50003365B500935585003365B500935505019E
:100D60003365B5001345F5FF9355150037565555B6
:100D700093095655B3F535013305B540B7353333CF
:100D800093843533B375950013552500337595005D
:100D90003385A500935545003305B500B7150F0FF2
:100DA000938AF5F033755501B705010113891510C4
:100DB0009305090097000000E7800011135B85018F
:100DC00013551A003365AA00935525003365B50005
:100DD000935545003365B500935585003365B500DF
:100DE000935505013365B5001345F5FF935515007F
:100DF000B3F535013305B540B3759500135525009E
:100E0000337595003385A500935545003305B5002E
:100E1000337555019305090097000000E780C00A6B
:100E200013558501B305AB401305F001637AB50294
:100E3000130A000013050A00032B0100832A410056
:100E4000032A81008329C100032901018324410170
:100E5000032481018320C101130101026780000086
:100E6000E38AA5FC13060000138515009306F00124
:100E7000B385B640B315BA00B356AA0093961600D0
:100E800013D7F501B3E6E60093951500B365B600F8
:100E900013C6F6FF330686001357F6411376170084
:100EA000337787001305F5FFB386E640E31805FCAA
:100EB00013951500336AA6006FF0DFF7731000C0BA
:100EC000731000C01306000063000502937615003E
:100ED000B306D040B3F6B6003386C60013551500EE
:100EE00093951500E31405FE1305060067800000C6
:100EF00097F2FFFF9382C226739052306780000002
:040F00006F0000007E
:100F1000617474656D707420746F2064697669649F
:100F200065206279207A65726F0000007802008087
:100F30000400000004000000D40300807C02008054
:100F40007803008063616C6C656420604F70746925
:100F50006F6E3A3A756E77726170282960206F6EF5
:100F6000206120604E6F6E65602076616C75655300
:100F7000657269616C206661756C740D0AE2969108
:100F8000E29688E29688E29688E29688E29688E27F
:100F90009597E29691E29688E29688E29597E29696
:100FA00091E29691E29688E29688E29597E2968899
:100FB000E29688E29688E29688E29688E29688E24F
:100FC0009688E29597E29688E29688E29688E2967D
:100FD00088E29688E29688E29597E29691E2968872
:100FE000E29688E29688E29688E29688E29688E21F
:100FF0009597E29691E29688E29688E29597E29636
:1010000091E29691E29691E29688E29688E295972F
:10101000E28083E28083E29691E29688E29688E21B
:101020009688E29688E29688E29688E29597E2961C
:1010300091E29688E29688E29688E29688E296881F
:10104000E29597E29691E29691E29688E29688E29E
:101050009688E29688E29688E29597E296910D0A44
:10106000E29688E29688E29594E29590E29590E285
:101070009688E29688E29597E29688E29688E295CD
:1010800091E29691E29691E29688E29688E29591B5
:10109000E29688E29688E29594E29590E29590E255
:1010A0009590E29590E2959DE29688E29688E29589
:1010B00094E29590E29590E29688E29688E2959780
:1010C000E29688E29688E29594E29590E29590E225
:1010D0009688E29688E29597E2959AE29688E2965B
:1010E00088E29597E29691E29688E29688E2959456
:1010F000E2959DE28083E28083E29688E29688E230
:101100009594E29590E29590E29590E29590E29523
:101110009DE29688E29688E29594E29590E2959019
:10112000E29688E29688E29597E29688E29688E2CF
:101130009594E29590E29590E29688E29688E29501
:10114000970D0AE29688E29688E29591E29691E2FE
:101150009691E2959AE29590E2959DE29688E296C4
:1011600088E29688E29688E29688E29688E29688F7
:10117000E29591E29688E29688E29688E29688E285
:101180009688E29597E29691E29691E29688E296A9
:1011900088E29688E29688E29688E29688E29594BC
:1011A000E2959DE29688E29688E29688E29688E249
:1011B0009688E29688E29594E2959DE29691E29572
:1011C0009AE29688E29688E29688E29688E295947A
:1011D000E2959DE29691E28083E28083E2959AE235
:1011E0009688E29688E29688E29688E29688E2956A
:1011F00097E29691E29688E29688E29591E296913E
:10120000E29691E29688E29688E29591E29688E2EB
:101210009688E29591E29691E29691E2959AE2950E
:1012200090E2959D0D0AE29688E29688E29591E219
:101230009691E29691E29688E29688E29597E296F8
:1012400088E29688E29594E29590E29590E29688FD
:10125000E29688E29591E29688E29688E29594E299
:101260009590E29590E2959DE29691E29691E296B4
:1012700088E29688E29594E29590E29590E29688CD
:10128000E29688E29597E29688E29688E29594E263
:101290009590E29590E29688E29688E29597E2969C
:1012A00091E29691E2959AE29688E29688E2959488
:1012B000E2959DE29691E29691E28083E28083E25C
:1012C0009691E2959AE29590E29590E29590E29659
:1012D00088E29688E29597E29688E29688E2959170
:1012E000E29691E29691E29688E29688E29591E202
:1012F0009688E29688E29591E29691E29691E2963E
:1013000088E29688E295970D0AE2959AE29688E23D
:101310009688E29688E29688E29688E29594E2952D
:101320009DE29688E29688E29591E29691E2969106
:10133000E29688E29688E29591E29688E29688E2C3
:101340009688E29688E29688E29688E29688E29508
:1013500097E29688E29688E29591E29691E29691DC
:10136000E29688E29688E29591E29688E29688E293
:101370009591E29691E29691E29688E29688E295BE
:1013800091E29691E29691E29691E29688E29688B1
:10139000E29591E29691E29691E29691E28083E263
:1013A0008083E29688E29688E29688E29688E296C2
:1013B00088E29688E29594E2959DE2959AE2968875
:1013C000E29688E29688E29688E29688E29594E230
:1013D000959DE2959AE29688E29688E29688E29652
:1013E00088E29688E29594E2959D0D0AE29691E254
:1013F000959AE29590E29590E29590E29590E2952B
:101400009DE29691E2959AE29590E2959DE2969101
:10141000E29691E2959AE29590E2959DE2959AE2A4
:101420009590E29590E29590E29590E29590E29504
:1014300090E2959DE2959AE29590E2959DE29691D3
:10144000E29691E2959AE29590E2959DE2959AE274
:101450009590E2959DE29691E29691E2959AE295B9
:1014600090E2959DE29691E29691E29691E2959AAC
:10147000E29590E2959DE29691E29691E29691E254
:101480008083E28083E2959AE29590E29590E295DE
:1014900090E29590E29590E2959DE29691E2969188
:1014A000E2959AE29590E29590E29590E29590E22D
:1014B000959DE29691E29691E2959AE29590E29559
:1014C00090E29590E29590E2959DE296910D0A004A
:1014D0007B0F00805405000048656C6C6F207061C4
:1014E0006E696300980C0080980C0080000000007A
:1014F000980C0080980C0080980C00800000000080
:10150000980C0080980C0080980C0080000000006F
:04151000080400804B
:040000058000000077
:00000001FF
